{
  "_format": "hh-sol-artifact-1",
  "contractName": "TokenExchange",
  "sourceName": "contracts/Pool.sol",
  "abi": [
    {
      "inputs": [
        {
          "internalType": "address",
          "name": "_tokenA",
          "type": "address"
        },
        {
          "internalType": "address",
          "name": "_tokenB",
          "type": "address"
        },
        {
          "internalType": "uint256",
          "name": "_exchangeRate",
          "type": "uint256"
        }
      ],
      "stateMutability": "nonpayable",
      "type": "constructor"
    },
    {
      "inputs": [],
      "name": "exchangeRate",
      "outputs": [
        {
          "internalType": "uint256",
          "name": "",
          "type": "uint256"
        }
      ],
      "stateMutability": "view",
      "type": "function"
    },
    {
      "inputs": [
        {
          "internalType": "uint256",
          "name": "amountA",
          "type": "uint256"
        }
      ],
      "name": "getBAmount",
      "outputs": [
        {
          "internalType": "uint256",
          "name": "",
          "type": "uint256"
        }
      ],
      "stateMutability": "view",
      "type": "function"
    },
    {
      "inputs": [
        {
          "internalType": "uint256",
          "name": "amountA",
          "type": "uint256"
        }
      ],
      "name": "swapAtoB",
      "outputs": [],
      "stateMutability": "nonpayable",
      "type": "function"
    },
    {
      "inputs": [
        {
          "internalType": "uint256",
          "name": "amountB",
          "type": "uint256"
        }
      ],
      "name": "swapBtoA",
      "outputs": [],
      "stateMutability": "nonpayable",
      "type": "function"
    },
    {
      "inputs": [],
      "name": "tokenA",
      "outputs": [
        {
          "internalType": "address",
          "name": "",
          "type": "address"
        }
      ],
      "stateMutability": "view",
      "type": "function"
    },
    {
      "inputs": [],
      "name": "tokenB",
      "outputs": [
        {
          "internalType": "address",
          "name": "",
          "type": "address"
        }
      ],
      "stateMutability": "view",
      "type": "function"
    }
  ],
  "bytecode": "0x60806040523480156200001157600080fd5b5060405162000e6738038062000e6783398181016040528101906200003791906200016d565b826000806101000a81548173ffffffffffffffffffffffffffffffffffffffff021916908373ffffffffffffffffffffffffffffffffffffffff16021790555081600160006101000a81548173ffffffffffffffffffffffffffffffffffffffff021916908373ffffffffffffffffffffffffffffffffffffffff16021790555080600281905550505050620001c9565b600080fd5b600073ffffffffffffffffffffffffffffffffffffffff82169050919050565b6000620000fa82620000cd565b9050919050565b6200010c81620000ed565b81146200011857600080fd5b50565b6000815190506200012c8162000101565b92915050565b6000819050919050565b620001478162000132565b81146200015357600080fd5b50565b60008151905062000167816200013c565b92915050565b600080600060608486031215620001895762000188620000c8565b5b600062000199868287016200011b565b9350506020620001ac868287016200011b565b9250506040620001bf8682870162000156565b9150509250925092565b610c8e80620001d96000396000f3fe608060405234801561001057600080fd5b50600436106100625760003560e01c80630fc63d10146100675780633ba0b9a9146100855780635f64b55b146100a3578063b7344025146100c1578063da0d6735146100f1578063e0441df01461010d575b600080fd5b61006f610129565b60405161007c919061089b565b60405180910390f35b61008d61014d565b60405161009a91906108cf565b60405180910390f35b6100ab610153565b6040516100b8919061089b565b60405180910390f35b6100db60048036038101906100d6919061091b565b610179565b6040516100e891906108cf565b60405180910390f35b61010b6004803603810190610106919061091b565b6102f2565b005b6101276004803603810190610122919061091b565b6105a5565b005b60008054906101000a900473ffffffffffffffffffffffffffffffffffffffff1681565b60025481565b600160009054906101000a900473ffffffffffffffffffffffffffffffffffffffff1681565b60008060008054906101000a900473ffffffffffffffffffffffffffffffffffffffff1673ffffffffffffffffffffffffffffffffffffffff166370a08231306040518263ffffffff1660e01b81526004016101d5919061089b565b602060405180830381865afa1580156101f2573d6000803e3d6000fd5b505050506040513d601f19601f82011682018060405250810190610216919061095d565b90506000600160009054906101000a900473ffffffffffffffffffffffffffffffffffffffff1673ffffffffffffffffffffffffffffffffffffffff166370a08231306040518263ffffffff1660e01b8152600401610275919061089b565b602060405180830381865afa158015610292573d6000803e3d6000fd5b505050506040513d601f19601f820116820180604052508101906102b6919061095d565b9050600254826102c691906109b9565b6103e882866102d591906109b9565b6102df91906109b9565b6102e99190610a2a565b92505050919050565b60003390508160008054906101000a900473ffffffffffffffffffffffffffffffffffffffff1673ffffffffffffffffffffffffffffffffffffffff1663dd62ed3e83306040518363ffffffff1660e01b8152600401610353929190610a5b565b602060405180830381865afa158015610370573d6000803e3d6000fd5b505050506040513d601f19601f82011682018060405250810190610394919061095d565b10156103d5576040517f08c379a00000000000000000000000000000000000000000000000000000000081526004016103cc90610b07565b60405180910390fd5b60006103e083610179565b905060008054906101000a900473ffffffffffffffffffffffffffffffffffffffff1673ffffffffffffffffffffffffffffffffffffffff166323b872dd8330866040518463ffffffff1660e01b815260040161043f93929190610b27565b6020604051808303816000875af115801561045e573d6000803e3d6000fd5b505050506040513d601f19601f820116820180604052508101906104829190610b96565b6104c1576040517f08c379a00000000000000000000000000000000000000000000000000000000081526004016104b890610c0f565b60405180910390fd5b600160009054906101000a900473ffffffffffffffffffffffffffffffffffffffff1673ffffffffffffffffffffffffffffffffffffffff1663a9059cbb83836040518363ffffffff1660e01b815260040161051e929190610c2f565b6020604051808303816000875af115801561053d573d6000803e3d6000fd5b505050506040513d601f19601f820116820180604052508101906105619190610b96565b6105a0576040517f08c379a000000000000000000000000000000000000000000000000000000000815260040161059790610c0f565b60405180910390fd5b505050565b600033905081600160009054906101000a900473ffffffffffffffffffffffffffffffffffffffff1673ffffffffffffffffffffffffffffffffffffffff1663dd62ed3e83306040518363ffffffff1660e01b8152600401610608929190610a5b565b602060405180830381865afa158015610625573d6000803e3d6000fd5b505050506040513d601f19601f82011682018060405250810190610649919061095d565b101561068a576040517f08c379a000000000000000000000000000000000000000000000000000000000815260040161068190610b07565b60405180910390fd5b600061069583610179565b9050600160009054906101000a900473ffffffffffffffffffffffffffffffffffffffff1673ffffffffffffffffffffffffffffffffffffffff166323b872dd8330866040518463ffffffff1660e01b81526004016106f693929190610b27565b6020604051808303816000875af1158015610715573d6000803e3d6000fd5b505050506040513d601f19601f820116820180604052508101906107399190610b96565b610778576040517f08c379a000000000000000000000000000000000000000000000000000000000815260040161076f90610c0f565b60405180910390fd5b60008054906101000a900473ffffffffffffffffffffffffffffffffffffffff1673ffffffffffffffffffffffffffffffffffffffff1663a9059cbb83836040518363ffffffff1660e01b81526004016107d3929190610c2f565b6020604051808303816000875af11580156107f2573d6000803e3d6000fd5b505050506040513d601f19601f820116820180604052508101906108169190610b96565b610855576040517f08c379a000000000000000000000000000000000000000000000000000000000815260040161084c90610c0f565b60405180910390fd5b505050565b600073ffffffffffffffffffffffffffffffffffffffff82169050919050565b60006108858261085a565b9050919050565b6108958161087a565b82525050565b60006020820190506108b0600083018461088c565b92915050565b6000819050919050565b6108c9816108b6565b82525050565b60006020820190506108e460008301846108c0565b92915050565b600080fd5b6108f8816108b6565b811461090357600080fd5b50565b600081359050610915816108ef565b92915050565b600060208284031215610931576109306108ea565b5b600061093f84828501610906565b91505092915050565b600081519050610957816108ef565b92915050565b600060208284031215610973576109726108ea565b5b600061098184828501610948565b91505092915050565b7f4e487b7100000000000000000000000000000000000000000000000000000000600052601160045260246000fd5b60006109c4826108b6565b91506109cf836108b6565b92508282026109dd816108b6565b915082820484148315176109f4576109f361098a565b5b5092915050565b7f4e487b7100000000000000000000000000000000000000000000000000000000600052601260045260246000fd5b6000610a35826108b6565b9150610a40836108b6565b925082610a5057610a4f6109fb565b5b828204905092915050565b6000604082019050610a70600083018561088c565b610a7d602083018461088c565b9392505050565b600082825260208201905092915050565b7f546f6b656e45786368616e67653a20496e73756666696369656e7420616c6c6f60008201527f77616e6365000000000000000000000000000000000000000000000000000000602082015250565b6000610af1602583610a84565b9150610afc82610a95565b604082019050919050565b60006020820190508181036000830152610b2081610ae4565b9050919050565b6000606082019050610b3c600083018661088c565b610b49602083018561088c565b610b5660408301846108c0565b949350505050565b60008115159050919050565b610b7381610b5e565b8114610b7e57600080fd5b50565b600081519050610b9081610b6a565b92915050565b600060208284031215610bac57610bab6108ea565b5b6000610bba84828501610b81565b91505092915050565b7f546f6b656e45786368616e67653a205472616e73666572206661696c65640000600082015250565b6000610bf9601e83610a84565b9150610c0482610bc3565b602082019050919050565b60006020820190508181036000830152610c2881610bec565b9050919050565b6000604082019050610c44600083018561088c565b610c5160208301846108c0565b939250505056fea2646970667358221220cd11b4ab7a9cf44e0f131570991778de7040c76d6a6ec8da4cc0d2eb28731cf764736f6c63430008120033",
  "linkReferences": {},
  "deployedLinkReferences": {}
}